:100000000C9459000C9476000C9476000C947600B5
:100010000C9476000C9476000C9476000C94760088
:100020000C9476000C94C0090C9476000C94760025
:100030000C9476000C9488060C9476000C94760050
:100040000C9476000C9476000C9476000C94760058
:100050000C9476000C9476000C9476000C94760048
:100060000C9476000C947600000000000000001F45
:100070001F1F1F1F1F1F4C31362063646567726589
:100080006734003E6733323E3E63333200666F6C46
:100090006C6F77657200504944204C696E6500337F
:1000A000F720526F626F740020506F6C6F6C750098
:1000B0009A0A11241FBECFEFD8E0DEBFCDBF11E0FA
:1000C000A0E0B1E0E8E6F3E202C005900D92A835A9
:1000D000B107D9F721E0A8E5B1E001C01D92A43C29
:1000E000B207E1F70E94FA020C94A7110C940000E9
:1000F00060E088E690E00E94B90761E089E690E060
:100100000E94B90762E08AE690E00E94B90763E0C6
:100110008BE690E00E94B90764E08CE690E00E94D4
:10012000B90765E08DE690E00E94B90766E08EE6CB
:1001300090E00E94B9070E942C080895CF92DF92A8
:10014000FF920F931F93CF93DF93CDB7DEB72A971C
:100150000FB6F894DEBF0FBECDBF8C016C018AE0F4
:10016000C80ED11C0F2EFAE0FF2EF02DE6E1F1E0D3
:10017000DE0111968F2D01900D928A95E1F7F8011D
:10018000219131918F01A7E4B4E10E941B10969553
:1001900087959695879596958795E1E0F0E0EC0F29
:1001A000FD1FE80FF91F80810E94BC070C151D057B
:1001B000E9F62A960FB6F894DEBF0FBECDBFDF91E9
:1001C000CF911F910F91FF90DF90CF9008950F93E3
:1001D0001F93CF93DF93CDB7DEB72A970FB6F8946E
:1001E000DEBF0FBECDBF80ED97E00E94960A0E9451
:1001F000780088EA90E00E944C0861E080E00E946C
:10020000C4088FE990E00E944C0883E890E00E94C7
:10021000F90688EE93E00E94080A0E942C0886E9FD
:1002200090E00E944C0861E080E00E94C4088DE8E4
:1002300090E00E944C0888EE93E00E94080A1BC0E0
:100240000E94CE038C010E942C08B801110F880B6C
:10025000990B0E94A1088DE391E00E943B0861E0A8
:1002600080E00E94C40880E491E00E943B0884E69C
:1002700090E00E94080A80E10E94BD09882301F3F2
:1002800080E10E94A90988EE93E00E94080A0CEE22
:100290001FEF0832110538F068ED7FEF88E290E03B
:1002A0000E947A0906C068E270E088ED9FEF0E9424
:1002B0007A0981E00E945A0A84E190E00E94080ACB
:1002C0000F5F1F4F0C33110521F760E070E080E0F5
:1002D00090E00E947A0919C061E0CE0101960E9467
:1002E000600A8C010E942C08B80180E090E00E9416
:1002F000A10861E080E00E94C408CE0101960E943E
:100300009E0084E690E00E94080A80E10E94BD09F8
:10031000882311F380E10E94A9090E942C0888E437
:1003200091E00E943B0886E790E00E94F9060E9457
:10033000E8068111FCCF2A960FB6F894DEBF0FBEF7
:10034000CDBFDF91CF911F910F910895AF92BF92D2
:10035000CF92DF92EF92FF920F931F93CF93DF9391
:100360008C015A01EB01C05DD740BE010D2E000C7F
:10037000880B990B20E137E240E050E00E94FC0F2F
:1003800069017A01CE0164E170E00E94C60FC60ED9
:10039000D71EFE01EA19FB09AF01440F551F4E0F8E
:1003A0005F1F552314F44F5F5F4F55954795960196
:1003B000240F351FF80182819381853893407CF0AA
:1003C000F801848195818538934064F0F801868135
:1003D0009781853893404CF08DE790E008C082E328
:1003E00090E005C082E390E002C082E390E0AC01BF
:1003F000281739070CF4A90122273327281B390BAA
:10040000241735070CF49A01332334F4BC01820F0E
:10041000931F0E947A0905C0BC01621B730B0E94E6
:100420007A09CE01DF91CF911F910F91FF90EF904C
:10043000DF90CF90BF90AF900895CF93DF93EC0102
:1004400061E00E94600A2091BB01213009F046C0A2
:100450002881398125383340A0F02A813B81253815
:10046000334078F02C813D812538334050F02E8187
:100470003F812538334028F0288539852538334099
:1004800068F54A815B816C817D812E813F8180EDA1
:1004900097E0689FF001699FF00D789FF00D11249F
:1004A000A8EEB3E04A9FC0014B9F900D5A9F900D5C
:1004B00011248E0F9F1FA8EBBBE02A9FF0012B9FFA
:1004C000F00D3A9FF00D11248E0F9F1F640F751FC2
:1004D000620F731F0E94B20F862F972FDF91CF916B
:1004E0000895CF93DF93CDB7DEB72A970FB6F89470
:1004F000DEBF0FBECDBF0E94E700E12CF12CBB2474
:10050000B3940F2EFBE4CF2EF1E0DF2EF02DAB2CB9
:100510000E942C08CE0101960E941D028C01E981E7
:10052000FA81E538F34028F1EB81FC81E538F340AE
:1005300000F18D819E8185389340D8F08F81988518
:1005400085389340B0F089859A858538934088F046
:100550008091BB01813019F41092BB0106C0D0928A
:100560001501C0921401A092BB018CE291E00E949F
:10057000080A9091BB01992319F09130F1F0C8CF8E
:100580000E94400A0E942C0860E080E00E94C4089B
:100590008CE491E00E943B086B2D80E00E94C4082F
:1005A000CE0101960E949E0020E0A701B801CE0175
:1005B00001960E94A6017C01ABCF0E94400A0E94D6
:1005C0002C0860E080E00E94C40880E591E00E9471
:1005D0003B086B2D80E00E94C408CE0101960E946A
:1005E0009E002B2DA701B801CE0101960E94A60105
:1005F0007C018ECF0E947102FFCFECE7F0E080819A
:100600008F7D80830895811103C00E94FD020895AB
:1006100080917C00806280937C00089580917C00B2
:1006200085FB882780F908950E940E03882321F016
:100630008091790090E00895809178009091790000
:1006400008958032A0F497E890937A0090917C000E
:10065000662311F0906C02C09F779064907E982B77
:1006600090937C0080917A00806480937A00089552
:10067000A0E0B0E0EEE3F3E00C944710EB0160E0A3
:100680000E94210380917A0086FDFCCF8E01C12C4F
:10069000D12C760180917A00806480937A008091D9
:1006A0007A0086FDFCCF0E941403C80ED91EE11CFF
:1006B000F11C015011090115110561F7CE01969544
:1006C0008795C034D10538F48C0D9D1DBE010E9464
:1006D000B20FCB010EC0A7019601280F391F411D93
:1006E000511DCA01B9019E0140E050E00E94DA0F9D
:1006F000C901CDB7DEB7E8E00C946310CF92DF926A
:10070000EF92FF92A0910001B09101019C010E9423
:100710001B106B017C010E940E03882359F0C70156
:10072000B60161587F4F8F4F9F4F2FEF30E040E071
:1007300050E00AC0C701B60161507E4F8F4F9F4FF6
:100740002FEF33E040E050E00E94DA0FC901FF9044
:10075000EF90DF90CF9008950E9438030E947E03AF
:1007600008951F93CF93DF930E940E03182F0E94CA
:10077000FD026AE070E086E00E94AC03EC01812F8C
:100780000E940303CE01880F991F8C0F9D1F0196B5
:1007900096958795DF91CF911F9108950E94B1039F
:1007A000089590915D01E0915801F09159019923CC
:1007B00011F0849101C080812FEB280F2A3110F4B1
:1007C000805E0895803249F49F012F5F3F4F309340
:1007D000590120935801EF2B31F708951F93CF93C0
:1007E000DF930E94D103C0E0D0E01AE090ED980FB3
:1007F0009A30B8F49E01129FE001139FD00D11248E
:10080000C80FD11D87FDDA95E0978091580190912E
:100810005901019690935901809358010E94D10388
:10082000E5CFCE01DF91CF911F91089510926F0017
:1008300083E28093800081E18093810010928200A6
:1008400080E197E2909389008093880010928B005A
:1008500010928A00229A789408958F929F92AF9274
:10086000BF92DF92EF92FF920F931F93CF93DF938C
:100870005C018B01D42E80915A01811105C081E069
:1008800080935A010E94160410920B01B7FE05C016
:10089000E894B7F82AE0F22E02C0FF24F394E09027
:1008A00081002E2D287FE22E48ECF49EC0011124F9
:1008B0008A159B05E0F4E50151E1A51657E2B5065E
:1008C00010F0C0E1D7E2BE017695679580E090E038
:1008D0006058794687469F4F4E01A12CB12CA50147
:1008E00094010E94DA0F59018E2D816024C0C8E264
:1008F000FC9EC02D1124D0E0CA15DB0508F4E501EB
:10090000BE01769567959E0140E050E08AE0F812BE
:1009100007C080E090E0605E734481449F4F06C052
:1009200080E090E060537D4E8C4E9F4F0E94DA0F26
:1009300059018E2D8260882E2AE0F21207C0CE0166
:1009400005966AE070E00E94B20FEB01C83E43E0FA
:10095000D40759F09801DE010E941B1028EE33E005
:1009600040E050E00E94FC0F890110926F008092DD
:100970008100B0928900A092880020918800309177
:1009800089004D2D403108F04FE080E190E0841B5C
:100990009109A90102C0569547958A95E2F75093AF
:1009A0008B0040938A001093600100935F0186B32F
:1009B0008FEF86BB81E080936F00DF91CF911F9115
:1009C0000F91FF90EF90DF90BF90AF909F908F902E
:1009D0000895CF93DF93EB018F3F11F0411105C0D4
:1009E00040E0BE0188EE93E043C0813130F050EF2B
:1009F000580F503618F05FE501C050E0852F6CE0CD
:100A00000E94A60F682F74EF760390011124250F22
:100A1000311D2C30310540F4F901EE0FFF1FE05E6F
:100A2000FE4F2081318102C020E030E0873081F02C
:100A3000082E02C0220F331F0A94E2F7823028F0FA
:100A4000C90105966AE070E00CC0C90190580CC05D
:100A5000C90136E0880F991F3A95E1F7029665E0E3
:100A600070E00E94B20FCB01403108F04FE0BE01B0
:100A70000E942D04DF91CF910895A2E0B0E0E3E45D
:100A8000F5E00C943F1090900A0180915C0188235E
:100A900021F060915B01611117C077247394B0EC71
:100AA000AB2EBDE5BB2E1AE0612E04E0802E80ED5A
:100AB000C82E87E0D82E94E0E92EF12C04EF11E047
:100AC0002FE0422E512C15C070E040E088EE93E0FC
:100AD0000E942D0410925B0117C18636D4F5813631
:100AE00009F4A9C07CF58C3309F460C08E3381F41D
:100AF00093940E94D10320915801309159012F5FA6
:100B00003F4F3093590120935801853631F752C039
:100B1000813209F08BC080920A01D0920901C09203
:100B20000801F0920701E09206011093050100937D
:100B30000401509203014092020110925C01A4E072
:100B40009A2ED7CF8336A1F10CF478C010E082E062
:100B500077C08D36C1F194F4873691F174F18C36FB
:100B600009F064C00E94EE03BC01909307018093DA
:100B70000601809108019091090151C08237C9F1A5
:100B80004CF48F3609F052C00E94EE03982E8093E9
:100B90000A01AFCF843781F1863709F047C00E9440
:100BA000EE039093030180930201A3CF9A94A1CF07
:100BB00010E020C010E084E043C010E085E040C0B9
:100BC00010E087E03DC00E94D1038C3619F41092EA
:100BD0005C0104C070925C0110925B01209158018D
:100BE000309159012F5F3F4F3093590120935801A5
:100BF00080CF11E080E024C00E94EE03BC01C5015B
:100C00000E94B20F669EC001679E900D11249093C2
:100C100009018093080160910601709107010E940B
:100C2000B20F709305016093040163CF10925901D4
:100C30001092580169C010E089E002C010E08BE01A
:100C4000082F9CE0999E000D11240E94D103982F3B
:100C5000977F933261F420915801309159012F5FB1
:100C60003F4F30935901209358010F5FEECF8D32E3
:100C700071F420915801309159012F5F3F4F30930B
:100C800059012093580101500E94D103F0CF609187
:100C90000401709105018153883050F4E0900801FF
:100CA000F09009010E94EE03BC01C7010E94B20F3F
:100CB0007B01F694E79469837A830E94D10369816A
:100CC0007A818E3269F420915801309159012F5F59
:100CD0003F4F30935901209358016E0D7F1DE9CF8E
:100CE00080915C01882339F09B01369527952093EC
:100CF0005B01621B710940910201112311F08FEF1A
:100D000001C0802F0E94E9042296E0E10C945B1060
:100D10001F920F920FB60F9211242F933F934F9370
:100D20005F936F937F938F939F93AF93BF93EF9353
:100D3000FF9380915F01909160019C0121503109E6
:100D40003093600120935F01892B11F510926F00A1
:100D5000789480918100887F81608093810080E118
:100D600097E2909389008093880010928B001092F4
:100D70008A0081E080930B01809158019091590184
:100D8000892B31F080915E01811102C00E943D05E6
:100D9000FF91EF91BF91AF919F918F917F916F9153
:100DA0005F914F913F912F910F900FBE0F901F9029
:100DB000189580910B01882349F081E0209158011A
:100DC00030915901232B19F480E0089581E00895B2
:100DD0000E94D906089510926F0090935901809354
:100DE000580181E080935D0110925B010E943D05F6
:100DF00008950E94EB06089581E090E06F9364E00F
:100E00006A95F1F76F910197C9F708950F931F93B2
:100E1000CF93DF931AB157985A98289AC0E0D0E040
:100E20000E94FC065C9A0E94FC0609B15C980E9434
:100E3000FC065C9A0E94FC065C98249607FF10C092
:100E4000AE0160E070E08091610190916201A0913B
:100E50006301B0916401481759076A077B0700F3E3
:100E60001AB9DF91CF911F910F91089595B1282F55
:100E7000217030E0220F331F482F467068E0469FF4
:100E8000A0011124242B9D7C292B25B99BB18870AE
:100E90008295807F9F77892B8BB95C9A0E94FC0694
:100EA0005C980E94FC060895A0E0B0E0EAE5F7E057
:100EB0000C944810C82FD62EE42E8091BC018111CD
:100EC00005C081E08093BC010E94C4070E94060710
:100ED00014B1D5B1FAB00BB12898DD2011F05A9AAF
:100EE00001C05A9894B1926394B9579A81E0E81678
:100EF00029F08C2F82958F700E9436078C2F8F706F
:100F00000E943607FAB80BB914B9D5B9CDB7DEB718
:100F1000E7E00C94641042E060E00E9454070895FA
:100F200042E061E00E9454070895A1E0B0E0EBE9DF
:100F3000F7E00C9449108C01660F660F660FE12CE8
:100F4000F12C8E2D860F806469830E948B07F80137
:100F5000EE0DFF1D84910E9490078FEFE81AF80AAA
:100F60006981E8E0EE16F10461F72196E6E00C9461
:100F700065100E94950708950E949007089541E02A
:100F800060E00E945407089580E197E2A0E0B0E09D
:100F90008093610190936201A0936301B093640117
:100FA000529A209A549A8EE190E00E94080A83E0B7
:100FB0000E94BF0786E090E00E94080A83E00E943A
:100FC000BF0782E090E00E94080A83E00E94BF070A
:100FD00082E090E00E94080A82E00E94BF0782E05F
:100FE00090E00E94080A88E20E948B0788E00E9435
:100FF0008B0781E00E948B0786E00E948B078CE0C4
:101000000E948B07089581E00E948B078091670101
:1010100090916801892BF9F060E0A0E2262F30E082
:1010200070910C0180910D0190E00197789FA001D3
:10103000799F500D1124241735074CF4E091670176
:10104000F0916801E20FF31FA0836F5FE7CF10926A
:1010500065011092660108950E9403080895CF93D8
:10106000DF93EC018991882319F00E949007FACF51
:10107000DF91CF9108950E942F080895CF93DF93B9
:10108000EC01FE018491882321F00E9490072196B3
:10109000F8CFDF91CF9108950E943E080895AAE00D
:1010A000B0E0E5E5F8E00C9447101AE05AE0C52EF0
:1010B000D12CE12CF12C062FA70196010E94DA0F0A
:1010C000CA01B9011150E1E0F0E0EC0FFD1FE10FA2
:1010D000F11D005D2AE0629F001911240083611553
:1010E00071058105910539F71A3058F4E1E0F0E017
:1010F000EC0FFD1FE10FF11D80810E9490071F5F23
:10110000F3CF2A96E8E00C946310CF92DF92EF922F
:10111000FF926B017C0197FF0BC0F094E094D09498
:10112000C094C11CD11CE11CF11C8DE20E949007EF
:10113000C701B6010E944F08FF90EF90DF90CF905B
:1011400008950E9485080895A5E0B0E0EAEAF8E075
:101150000C944C10182F80E8898380EC8A8384E9F2
:101160008B8384ED8C83FE01E60FF11D8181810F5D
:101170006D830E948B07109365016D8160936601FA
:101180002596E3E00C9468100E94A4080895883026
:1011900058F491E001C0990F8A95EAF7892FAAE2E5
:1011A000B0E0EBE2F0E021C08E3060F498EF980FF1
:1011B00081E001C0880F9A95EAF7A4E2B0E0E5E289
:1011C000F0E013C0853160F492EF980F81E001C028
:1011D000880F9A95EAF7A7E2B0E0E8E2F0E005C0F0
:1011E00080E0A0E0B0E0E0E0F0E06F3F19F4908133
:1011F000982709C0662319F09081982B04C020819C
:10120000982F9095922390839C91982B9C9308956E
:1012100083EF8093B00084BD82E08093B10085BDF0
:101220001092B4001092B30018BC17BC60E086E0C6
:101230000E94C70860E085E00E94C70860E08BE07C
:101240000E94C70860E083E00E94C708089580916B
:10125000BD01811105C081E08093BD010E94080994
:101260000895CF93DF93EC010E942709D7FF05C0B3
:10127000D195C195D10981E001C080E0CF3FD10572
:1012800019F014F0CFEFD0E0882319F018BCC7BDD7
:1012900002C0C8BD17BCDF91CF910895CF93DF93F3
:1012A000EC010E942709D7FF05C0D195C195D1094E
:1012B00081E001C080E0CF3FD10519F014F0CFEFFD
:1012C000D0E0882329F01092B400C093B30004C08A
:1012D000C093B4001092B300DF91CF910895CF93E3
:1012E000DF93EB010E943109CE010E944E09DF918C
:1012F000CF9108950E946F09089584B18D7C84B9BF
:1013000085B1826385B985E090E06F9364E06A956A
:10131000F1F76F910197C9F708958091BE0181118E
:1013200005C081E08093BE010E947D090895CF939E
:10133000C82F0E948D0983B18C23E9F38AE090E0E5
:101340000E94080A83B18C23B1F383B18C23CF911F
:1013500008950E9497090895A1E0B0E0E2EBF9E05A
:101360000C944D1089830E948D0993B190958981C9
:1013700089232196E2E00C9469100E94AC0908953B
:101380002F928F939F932FB680917001909171014E
:101390000196809370019093710190E080917201A9
:1013A000891F8093720190916A019C5F90936A01FA
:1013B0008091690180519742C0F090936A018093B7
:1013C000690180916B0190916C01019680936B0192
:1013D00090936C0190E080916D01891F80936D0165
:1013E00080916E01891F80936E012FBE9F918F9116
:1013F0002F90189528EE33E0019748F0F9016F938C
:1014000064E06A95F1F76F913197C9F7F5CF0895C8
:101410000E94FA090895E0E7F0E080818E7F8083E2
:10142000A0EBB0E08C9183608C93A1EBB0E08C9149
:10143000807F8C938C9182608C93B89A808181603C
:101440008083789408958091BF01811105C081E067
:101450008093BF010E940B0A08950E94230AE0E7CF
:10146000F0E080818E7F808360916B0170916C01D0
:1014700080916D0190916E012081216020830895FB
:101480000E942D0A08950E94230AE0E7F0E080817F
:101490008E7F808310926B0110926C0110926D010F
:1014A00010926E0110926A01109269018081816030
:1014B00080830895682F83E791E00E94420E08958B
:1014C000462F20E0BC0183E791E00E94130F0895AE
:1014D0000F93CF93DF9300D000D01F92CDB7DEB72C
:1014E0009C0185E0E8E3F1E0DE01119601900D92A8
:1014F0008A95E1F7662311F00FEF01C003E145E0A3
:10150000BE016F5F7F4F83E791E00E943A0B83E754
:1015100091E00E94110B0E94430A0F900F900F90D0
:101520000F900F90DF91CF910F91089560E00E948E
:10153000680A089583E791E00E94880F08956F93E9
:1015400064E06A95F1F76F910197C9F70895FC017E
:1015500011821082138212821582148216826830E0
:1015600068F489E290E0918380838BE290E093833A
:1015700082838AE290E0958384831FC06E3070F48A
:1015800083E290E09183808385E290E0938382837D
:1015900084E290E09583848368500FC0653198F4AD
:1015A00086E290E09183808388E290E09383828357
:1015B00087E290E0958384836E5081E001C0880FBC
:1015C0006A95EAF786830895A7E0B0E0EAEEFAE0CC
:1015D0000C944B108C01FC01118210821382128238
:1015E0001582148217821682613118F080E180879B
:1015F00002C0FC016087F801208B642FCE010196A8
:101600000E94A70A8F81F80181878B819C81938733
:1016100082878D819E81958784872796E4E00C944C
:101620006710FC01A485B585109779F08C919185A0
:10163000892B8C93A285B3859C9181858095892384
:101640008C9388EC90E00E949F0A0895FC01A48589
:10165000B585109771F08C919185892B8C93A2851B
:10166000B3858C919185892B8C9388EC90E00E94B6
:101670009F0A0895A7E0B0E0E0E4FBE00C9440107E
:101680007C014B01642F3901402F20E00E94E40AC5
:1016900087010F5B1F4FF80110826701F2E4CF0E44
:1016A000D11CF60110825701F3E4AF0EB11CF50115
:1016B0001082F70177866686512CF70180855816CF
:1016C00050F5652C712CF401E60DF71D6081CE01FB
:1016D00001960E94A70A2F81F701E60DF71D218BC5
:1016E00089819A81F301EE0FFF1FEE0DFF1D92A37A
:1016F00081A38332910511F4F80108C08632910567
:1017000011F4F60103C0899721F4F5018081822B41
:1017100080835394D2CF2796EFE00C945C10A0E026
:10172000B0E0E5E9FBE00C944210EC015B016C01D8
:1017300081E4C80ED11CF60180807E01F2E4EF0E38
:10174000F11CF70170808E010D5B1F4FF801908036
:1017500080E09885891748F4F501E80FF11DE80F3E
:10176000F11D118210828F5FF4CF84B1F601908158
:10177000892B84B987B1F7019081892B87B98AB108
:10178000F8019081892B8AB985B1F6019081892B66
:1017900085B988B1F7019081892B88B98BB1F8019F
:1017A0009081892B8BB98AE090E00E949F0A94B1C6
:1017B000F60180818095892384B997B1F7018081F2
:1017C0008095892387B99AB1F80180818095892312
:1017D0008AB995B1F60180818095892385B998B140
:1017E000F70180818095892388B99BB1F8018081B8
:1017F000809589238BB9E090B000D090B1008091A2
:10180000B00083608093B00082E08093B10040918B
:10181000B20080E090E02E853F858217930720F587
:10182000C090B2002C2D241B820F911D03B1081112
:1018300032C0F6B0F7102FC029B129112CC010C04A
:10184000212F30E0A901440F551FF501E40FF51FCA
:1018500060817181672B21F11F5F2885121780F34A
:101860007F2C802E4C2DD7CFE092B000D092B100CB
:1018700020E08885281730F5F501E20FF11DE20F11
:10188000F11D80819181892B21F48E859F85918323
:1018900080832F5FEECF03B1F6B099B010E0DDCFBB
:1018A000DE01A40FB51F91960D90BC91A02D4C9117
:1018B000DE01A20FB31F51962C91422369F691834A
:1018C0008083CACFCDB7DEB7EDE00C945E10EF9207
:1018D000FF920F931F93CF93DF93FC019B01F09036
:1018E0007C0000917A0047B118B180917A0086FDA2
:1018F000FCCF80E09085891748F4D901A80FB11D6D
:10190000A80FB11D1D921C928F5FF4CF97B182A1D9
:101910008095892387B998B182A18095892388B958
:1019200087E880937A00E12C81A1E81610F0E12C81
:1019300029C050E08085581718F5A52FB0E0EF01B9
:10194000CA0FDB1F8989806480937C0080917A00B4
:10195000806480937A0080917A0086FDFCCF60914C
:10196000780070917900AA0FBB1FA20FB31F8D9151
:101970009C911197860F971F8D939C935F5FDACF91
:10198000E394D2CF8085E816A0F4E901CE0DD11DF5
:10199000CE0DD11D61A170E0CB0195958795A881F1
:1019A000B9818A0F9B1F0E94B20F79836883E394E9
:1019B000E9CFF0927C0000937A0018B947B9CDB70F
:1019C000DEB7E6E00C946510A0E2B0E0EAEEFCE0E1
:1019D0000C9448108C017B01D42E8FEF840F823041
:1019E00018F4C8010E94260BD80150968C91B701BB
:1019F000811110C0C8010E948F0BC8010E94110BF9
:101A0000B2E0DB123AC0BE016F5F7F4FC8010E9497
:101A10008F0B0FC0C8010E94670CC8010E94110BF8
:101A2000E2E0DE122AC0BE016F5F7F4FC8010E9454
:101A3000670C40E0F80180854817F8F4842F90E0A7
:101A4000880F991FF701E80FF91F21E030E02C0FF4
:101A50003D1F820F931FD8011E962D913C911F9719
:101A6000DC018D919C91281B390B80819181820F23
:101A7000931F918380834F5FDDCFA096E7E00C94A6
:101A800064102F923F925F926F927F928F929F92FB
:101A9000AF92BF92CF92DF92EF92FF920F931F937C
:101AA000CF93DF93CDB7DEB7C056D1090FB6F89408
:101AB000DEBF0FBECDBF8C014B015A01522EDA01A1
:101AC0008D919C91892B31F0F40180819181892B3A
:101AD000F1F424C0D80118968C9190E0880F991FDA
:101AE0000E947A10F50191838083009709F4B1C0B8
:101AF000FC0120E030E0D80118968C9190E0281786
:101B0000390714F7119211922F5F3F4FF4CFE12C58
:101B1000F12C6E01B1E2CB0ED11C21C0F801808501
:101B200090E0880F991F0E947A10D4018D939C93A6
:101B3000009709F48EC0FC0120E030E0D80118962F
:101B40008C9190E02817390714F7D8011E968D91D3
:101B50009C911F97819391932F5F3F4FEFCF452D1E
:101B6000BE016F5B7F4FC8010E94E40CF8016084E6
:101B7000712CFE01EF5BFF4FC6019E012F5F3F4FAF
:101B8000190120E030E0261537054CF5E114F10489
:101B900089F0DC016D917C9140815181641775075A
:101BA00048F0D1016D917C914081518146175707D2
:101BB00048F00DC040815181DC014D935C93E114EC
:101BC000F10479F740815181D1014D935C932F5FEE
:101BD0003F4FB2E02B0E311C32960296D4CFEFEF7E
:101BE000EE1AFE0AFAE0EF16F10409F0B8CF9E01F2
:101BF0002F5F3F4F7901360180E090E0F8012085AA
:101C000030E0821793072CF5D7012D913D917D018E
:101C1000B3016C197D09D501ED91FC91E60FF71F19
:101C2000408151814217530710F431832083F3011F
:101C3000219131913F01D401ED91FC91E60FF71F05
:101C4000408151812417350710F431832083019698
:101C5000D5CFC05ADF4F0FB6F894DEBF0FBECDBF51
:101C6000DF91CF911F910F91FF90EF90DF90CF9078
:101C7000BF90AF909F908F907F906F905F903F90BC
:101C80002F9008951F93CF93DF93EC01162F8FEFC2
:101C9000860F823018F0662359F014C021E0AE019F
:101CA0004E5F5F4FBE01CE010E94410D123051F4D4
:101CB000AE014A5F5F4FBE016C5F7F4F20E0CE01F7
:101CC0000E94410DDF91CF911F910895A0E0B0E0F7
:101CD000ECE6FEE00C944610EC018B01B42E842F50
:101CE0008D7F51F48C819D81892B09F497C08E8161
:101CF0009F81892B09F492C08FEF8B0D823050F4B5
:101D000088819981892B09F489C08A819B81892BDB
:101D100009F484C04B2DB801CE010E94E40C780177
:101D200000E010E0C12CD12C888590E0C816D906BF
:101D30000CF074C081E0B8120AC0EA81FB81E00FA8
:101D4000F11F0190F081E02DA881B9810DC08C8137
:101D50009D812E813F81B1100CC0F901E00FF11F70
:101D60000190F081E02DDC01A00FB11F8D919C91BD
:101D700028C0FC01E00FF11F40815181E881F98109
:101D8000E00FF11F80819181EE85FF85481759078B
:101D900010F4CF0104C08E0F9F1F841B950BD90137
:101DA000A00FB11F2D913C91AA81BB81A00FB11F43
:101DB0004D915C912417350720F0E40FF51FE21BCD
:101DC000F30BE81BF90BA9F0D7012D913C9140E0F2
:101DD00050E0281B390B41095109A8EEB3E00E94DD
:101DE0002A109F0140E050E00E94FC0F37FD0AC01E
:101DF00002C020E030E0293EB3E03B072CF028EEA3
:101E000033E002C020E030E0F701219331937F01FD
:101E1000FFEFCF1ADF0A0E5F1F4F86CFCDB7DEB7B9
:101E2000E9E00C946210A0E0B0E0E9E1FFE00C947E
:101E30003D10EC018B01822E0E94660E2884E80181
:101E4000412C512C320100E010E0C12CD12C760144
:101E5000312C912C58EEA52E53E0B52E921421F181
:101E6000E991F991882021F0C5018E1B9F0BFC019F
:101E7000E93CF10524F4E333F10574F002C03324A6
:101E80003394DF01A30192010E943510C60ED71EC4
:101E9000E81EF91E0E0F1F1F939498EE490E93E053
:101EA000591E611C711CDACF31101EC0492D50E043
:101EB0004150510924EF31E0429FC001439F900DF2
:101EC000529F900D11242091B7013091B80128172D
:101ED0003907B4F088EE93E0489F9001499F300D98
:101EE000589F300D11240EC0980140E050E0C7010A
:101EF000B6010E94DA0F3093B8012093B70102C0F7
:101F000020E030E0C901CDB7DEB7E2E10C94591012
:101F1000CF93DF93EC018A819B81009711F00E949F
:101F20000F118E819F81009711F00E940F118881FF
:101F30009981009711F00E940F118C819D8100976B
:101F400011F00E940F11DF91CF910895991B79E054
:101F500004C0991F961708F0961B881F7A95C9F739
:101F600080950895AA1BBB1B51E107C0AA1FBB1F88
:101F7000A617B70710F0A61BB70B881F991F5A9515
:101F8000A9F780959095BC01CD01089597FB072E88
:101F900016F4009407D077FD09D00E94B20F07FC19
:101FA00005D03EF4909581959F4F08957095619569
:101FB0007F4F0895A1E21A2EAA1BBB1BFD010DC085
:101FC000AA1FBB1FEE1FFF1FA217B307E407F507E9
:101FD00020F0A21BB30BE40BF50B661F771F881FC5
:101FE000991F1A9469F760957095809590959B015B
:101FF000AC01BD01CF010895052E97FB1EF400949E
:102000000E94131057FD07D00E94DA0F07FC03D07F
:102010004EF40C94131050954095309521953F4FF8
:102020004F4F5F4F089590958095709561957F4FC4
:102030008F4F9F4F0895A29FB001B39FC001A39FF0
:10204000700D811D1124911DB29F700D811D1124F1
:10205000911D08950E941B10A59F900DB49F900D97
:10206000A49F800D911D11240895B7FF0C942A1090
:102070000E942A10821B930B08952F923F924F9239
:102080005F926F927F928F929F92AF92BF92CF9208
:10209000DF92EF92FF920F931F93CF93DF93CDB711
:1020A000DEB7CA1BDB0B0FB6F894DEBF0FBECDBF89
:1020B00009942A88398848885F846E847D848C845A
:1020C0009B84AA84B984C884DF80EE80FD800C8163
:1020D0001B81AA81B981CE0FD11D0FB6F894DEBF46
:1020E0000FBECDBFED010895EE0FFF1F0590F491D7
:1020F000E02D0994CF93DF938230910510F482E0B4
:1021000090E0E091C201F091C30120E030E0C0E036
:10211000D0E0309711F14081518148175907C0F044
:102120004817590761F482819381209719F09B83A6
:102130008A832BC09093C3018093C20126C02115CE
:10214000310519F04217530718F49A01BE01DF0157
:10215000EF010280F381E02DDCCF2115310509F17B
:10216000281B390B2430310590F412968D919C91E7
:1021700013976115710521F0FB019383828304C0DD
:102180009093C3018093C201FD01329644C0FD01CA
:10219000E20FF31F81939193225031092D933C93C9
:1021A0003AC02091C0013091C101232B41F420910C
:1021B0001001309111013093C1012093C001209191
:1021C0000E0130910F012115310541F42DB73EB7B5
:1021D0004091120150911301241B350BE091C00175
:1021E000F091C101E217F307A0F42E1B3F0B281753
:1021F000390778F0AC014E5F5F4F2417350748F080
:102200004E0F5F1F5093C1014093C0018193919382
:1022100002C0E0E0F0E0CF01DF91CF9108950F938D
:102220001F93CF93DF93009709F48CC0FC01329782
:10223000138212820091C2011091C3010115110590
:1022400081F420813181820F931F2091C001309150
:10225000C1012817390779F5F093C101E093C00156
:1022600071C0D80140E050E0AE17BF0750F412969D
:102270002D913C911397AD012115310509F1D9013B
:10228000F3CF9D01DA013383228360817181860F50
:10229000971F8217930769F4EC0128813981260F73
:1022A000371F2E5F3F4F318320838A819B81938329
:1022B0008283452B29F4F093C301E093C20142C00D
:1022C0001396FC93EE931297ED01499159919E015B
:1022D000240F351FE217F30771F480819181840F79
:1022E000951F029611969C938E93828193811396EB
:1022F0009C938E931297E0E0F0E0D80112968D91B6
:102300009C911397009719F0F8018C01F6CF8D91ED
:102310009C9198012E5F3F4F820F931F2091C00127
:102320003091C1012817390769F4309729F41092C8
:10233000C3011092C20102C0138212821093C10124
:102340000093C001DF91CF911F910F91089510E08C
:10235000C8E5D0E004C0FE010E9474102196C93582
:08236000D107C9F7F894FFCF83
:1023680088130F00F4010400D007040108020000DC
:10237800C40120004B01200000010203040506FFF0
:102388009C01B501CF01EA01070226024702690252
:102398008E02B502DE020A030E0F1011126D5600EE
:1023A8005072657373204200476F2100464F4C00FE
:0823B8004445434F4445000079
:00000001FF
